00000002JOAO SOUZA                    0001P000000100000
00000005BEATRIZ COSTA                 0001P000000500000
00000003MARIA LIMA                    0002C000000350000
00000001ANA SILVA                     0002C000000250000
00000004CARLOS SANTOS                 0003C000000075000